{
  "_format": "hh-sol-artifact-1",
  "contractName": "DDrop",
  "sourceName": "contracts/DDrop.sol",
  "abi": [
    {
      "inputs": [],
      "stateMutability": "payable",
      "type": "constructor"
    },
    {
      "anonymous": false,
      "inputs": [
        {
          "indexed": false,
          "internalType": "uint256",
          "name": "fileId",
          "type": "uint256"
        },
        {
          "indexed": false,
          "internalType": "string",
          "name": "fileHash",
          "type": "string"
        },
        {
          "indexed": false,
          "internalType": "uint256",
          "name": "fileSize",
          "type": "uint256"
        },
        {
          "indexed": false,
          "internalType": "string",
          "name": "fileType",
          "type": "string"
        },
        {
          "indexed": false,
          "internalType": "string",
          "name": "fileName",
          "type": "string"
        },
        {
          "indexed": false,
          "internalType": "string",
          "name": "fileDescription",
          "type": "string"
        },
        {
          "indexed": false,
          "internalType": "uint256",
          "name": "uploadTime",
          "type": "uint256"
        },
        {
          "indexed": false,
          "internalType": "address",
          "name": "uploader",
          "type": "address"
        }
      ],
      "name": "FileUploaded",
      "type": "event"
    },
    {
      "inputs": [],
      "name": "fileCount",
      "outputs": [
        {
          "internalType": "uint256",
          "name": "",
          "type": "uint256"
        }
      ],
      "stateMutability": "view",
      "type": "function"
    },
    {
      "inputs": [
        {
          "internalType": "uint256",
          "name": "",
          "type": "uint256"
        }
      ],
      "name": "files",
      "outputs": [
        {
          "internalType": "uint256",
          "name": "fileId",
          "type": "uint256"
        },
        {
          "internalType": "string",
          "name": "fileHash",
          "type": "string"
        },
        {
          "internalType": "uint256",
          "name": "fileSize",
          "type": "uint256"
        },
        {
          "internalType": "string",
          "name": "fileType",
          "type": "string"
        },
        {
          "internalType": "string",
          "name": "fileName",
          "type": "string"
        },
        {
          "internalType": "string",
          "name": "fileDescription",
          "type": "string"
        },
        {
          "internalType": "uint256",
          "name": "uploadTime",
          "type": "uint256"
        },
        {
          "internalType": "address",
          "name": "uploader",
          "type": "address"
        }
      ],
      "stateMutability": "view",
      "type": "function"
    },
    {
      "inputs": [],
      "name": "name",
      "outputs": [
        {
          "internalType": "string",
          "name": "",
          "type": "string"
        }
      ],
      "stateMutability": "view",
      "type": "function"
    },
    {
      "inputs": [
        {
          "internalType": "string",
          "name": "_fileHash",
          "type": "string"
        },
        {
          "internalType": "uint256",
          "name": "_fileSize",
          "type": "uint256"
        },
        {
          "internalType": "string",
          "name": "_fileType",
          "type": "string"
        },
        {
          "internalType": "string",
          "name": "_fileName",
          "type": "string"
        },
        {
          "internalType": "string",
          "name": "_fileDescription",
          "type": "string"
        }
      ],
      "name": "uploadFile",
      "outputs": [],
      "stateMutability": "nonpayable",
      "type": "function"
    }
  ],
  "bytecode": "0x60806040526040518060400160405280600581526020017f4444726f70000000000000000000000000000000000000000000000000000000815250600090805190602001906200005192919062000174565b506000600155620000a26040518060400160405280601881526020017f596f206465706c6f7965642074686520636f6e74726163740000000000000000815250620000a860201b620006241760201c565b62000351565b6200014881604051602401620000bf919062000265565b6040516020818303038152906040527f41304fac000000000000000000000000000000000000000000000000000000007bffffffffffffffffffffffffffffffffffffffffffffffffffffffff19166020820180517bffffffffffffffffffffffffffffffffffffffffffffffffffffffff83818316178352505050506200014b60201b60201c565b50565b60008151905060006a636f6e736f6c652e6c6f679050602083016000808483855afa5050505050565b8280546200018290620002db565b90600052602060002090601f016020900481019282620001a65760008555620001f2565b82601f10620001c157805160ff1916838001178555620001f2565b82800160010185558215620001f2579182015b82811115620001f1578251825591602001919060010190620001d4565b5b50905062000201919062000205565b5090565b5b808211156200022057600081600090555060010162000206565b5090565b6000620002318262000289565b6200023d818562000294565b93506200024f818560208601620002a5565b6200025a8162000340565b840191505092915050565b6000602082019050818103600083015262000281818462000224565b905092915050565b600081519050919050565b600082825260208201905092915050565b60005b83811015620002c5578082015181840152602081019050620002a8565b83811115620002d5576000848401525b50505050565b60006002820490506001821680620002f457607f821691505b602082108114156200030b576200030a62000311565b5b50919050565b7f4e487b7100000000000000000000000000000000000000000000000000000000600052602260045260246000fd5b6000601f19601f8301169050919050565b610cbb80620003616000396000f3fe608060405234801561001057600080fd5b506004361061004c5760003560e01c806306fdde0314610051578063439535191461006f578063e82d9d331461008d578063f4c714b4146100a9575b600080fd5b6100596100e0565b604051610066919061095d565b60405180910390f35b61007761016e565b604051610084919061097f565b60405180910390f35b6100a760048036038101906100a29190610806565b610174565b005b6100c360048036038101906100be91906108dd565b61039c565b6040516100d798979695949392919061099a565b60405180910390f35b600080546100ed90610b24565b80601f016020809104026020016040519081016040528092919081815260200182805461011990610b24565b80156101665780601f1061013b57610100808354040283529160200191610166565b820191906000526020600020905b81548152906001019060200180831161014957829003601f168201915b505050505081565b60015481565b600085511161018257600080fd5b600083511161019057600080fd5b600081511161019e57600080fd5b60008251116101ac57600080fd5b600073ffffffffffffffffffffffffffffffffffffffff163373ffffffffffffffffffffffffffffffffffffffff1614156101e657600080fd5b600084116101f357600080fd5b6001600081548092919061020690610b87565b919050555060405180610100016040528060015481526020018681526020018581526020018481526020018381526020018281526020014281526020013373ffffffffffffffffffffffffffffffffffffffff168152506002600060015481526020019081526020016000206000820151816000015560208201518160010190805190602001906102989291906106e6565b506040820151816002015560608201518160030190805190602001906102bf9291906106e6565b5060808201518160040190805190602001906102dc9291906106e6565b5060a08201518160050190805190602001906102f99291906106e6565b5060c0820151816006015560e08201518160070160006101000a81548173ffffffffffffffffffffffffffffffffffffffff021916908373ffffffffffffffffffffffffffffffffffffffff1602179055509050507f6e95bbaa37a5fdec42a312e049dea2fe6160ebe659214d3409b4f91f164c2f526001548686868686423360405161038d98979695949392919061099a565b60405180910390a15050505050565b60026020528060005260406000206000915090508060000154908060010180546103c590610b24565b80601f01602080910402602001604051908101604052809291908181526020018280546103f190610b24565b801561043e5780601f106104135761010080835404028352916020019161043e565b820191906000526020600020905b81548152906001019060200180831161042157829003601f168201915b50505050509080600201549080600301805461045990610b24565b80601f016020809104026020016040519081016040528092919081815260200182805461048590610b24565b80156104d25780601f106104a7576101008083540402835291602001916104d2565b820191906000526020600020905b8154815290600101906020018083116104b557829003601f168201915b5050505050908060040180546104e790610b24565b80601f016020809104026020016040519081016040528092919081815260200182805461051390610b24565b80156105605780601f1061053557610100808354040283529160200191610560565b820191906000526020600020905b81548152906001019060200180831161054357829003601f168201915b50505050509080600501805461057590610b24565b80601f01602080910402602001604051908101604052809291908181526020018280546105a190610b24565b80156105ee5780601f106105c3576101008083540402835291602001916105ee565b820191906000526020600020905b8154815290600101906020018083116105d157829003601f168201915b5050505050908060060154908060070160009054906101000a900473ffffffffffffffffffffffffffffffffffffffff16905088565b6106ba81604051602401610638919061095d565b6040516020818303038152906040527f41304fac000000000000000000000000000000000000000000000000000000007bffffffffffffffffffffffffffffffffffffffffffffffffffffffff19166020820180517bffffffffffffffffffffffffffffffffffffffffffffffffffffffff83818316178352505050506106bd565b50565b60008151905060006a636f6e736f6c652e6c6f679050602083016000808483855afa5050505050565b8280546106f290610b24565b90600052602060002090601f016020900481019282610714576000855561075b565b82601f1061072d57805160ff191683800117855561075b565b8280016001018555821561075b579182015b8281111561075a57825182559160200191906001019061073f565b5b509050610768919061076c565b5090565b5b8082111561078557600081600090555060010161076d565b5090565b600061079c61079784610a59565b610a34565b9050828152602081018484840111156107b457600080fd5b6107bf848285610ae2565b509392505050565b600082601f8301126107d857600080fd5b81356107e8848260208601610789565b91505092915050565b60008135905061080081610c6e565b92915050565b600080600080600060a0868803121561081e57600080fd5b600086013567ffffffffffffffff81111561083857600080fd5b610844888289016107c7565b9550506020610855888289016107f1565b945050604086013567ffffffffffffffff81111561087257600080fd5b61087e888289016107c7565b935050606086013567ffffffffffffffff81111561089b57600080fd5b6108a7888289016107c7565b925050608086013567ffffffffffffffff8111156108c457600080fd5b6108d0888289016107c7565b9150509295509295909350565b6000602082840312156108ef57600080fd5b60006108fd848285016107f1565b91505092915050565b61090f81610aa6565b82525050565b600061092082610a8a565b61092a8185610a95565b935061093a818560208601610af1565b61094381610c5d565b840191505092915050565b61095781610ad8565b82525050565b600060208201905081810360008301526109778184610915565b905092915050565b6000602082019050610994600083018461094e565b92915050565b6000610100820190506109b0600083018b61094e565b81810360208301526109c2818a610915565b90506109d1604083018961094e565b81810360608301526109e38188610915565b905081810360808301526109f78187610915565b905081810360a0830152610a0b8186610915565b9050610a1a60c083018561094e565b610a2760e0830184610906565b9998505050505050505050565b6000610a3e610a4f565b9050610a4a8282610b56565b919050565b6000604051905090565b600067ffffffffffffffff821115610a7457610a73610c2e565b5b610a7d82610c5d565b9050602081019050919050565b600081519050919050565b600082825260208201905092915050565b6000610ab182610ab8565b9050919050565b600073ffffffffffffffffffffffffffffffffffffffff82169050919050565b6000819050919050565b82818337600083830152505050565b60005b83811015610b0f578082015181840152602081019050610af4565b83811115610b1e576000848401525b50505050565b60006002820490506001821680610b3c57607f821691505b60208210811415610b5057610b4f610bff565b5b50919050565b610b5f82610c5d565b810181811067ffffffffffffffff82111715610b7e57610b7d610c2e565b5b80604052505050565b6000610b9282610ad8565b91507fffffffffffffffffffffffffffffffffffffffffffffffffffffffffffffffff821415610bc557610bc4610bd0565b5b600182019050919050565b7f4e487b7100000000000000000000000000000000000000000000000000000000600052601160045260246000fd5b7f4e487b7100000000000000000000000000000000000000000000000000000000600052602260045260246000fd5b7f4e487b7100000000000000000000000000000000000000000000000000000000600052604160045260246000fd5b6000601f19601f8301169050919050565b610c7781610ad8565b8114610c8257600080fd5b5056fea2646970667358221220982e85c55d25b07624d70d03c1ce8d355eea02129ed815d725507654694fe97564736f6c63430008040033",
  "linkReferences": {},
  "deployedLinkReferences": {}
}